{
  "contractName": "EthSwap",
  "abi": [
    {
      "inputs": [
        {
          "internalType": "contract ERC20",
          "name": "_token",
          "type": "address"
        }
      ],
      "stateMutability": "nonpayable",
      "type": "constructor"
    },
    {
      "inputs": [],
      "name": "rate",
      "outputs": [
        {
          "internalType": "uint256",
          "name": "",
          "type": "uint256"
        }
      ],
      "stateMutability": "view",
      "type": "function",
      "constant": true
    },
    {
      "inputs": [],
      "name": "token",
      "outputs": [
        {
          "internalType": "contract ERC20",
          "name": "",
          "type": "address"
        }
      ],
      "stateMutability": "view",
      "type": "function",
      "constant": true
    },
    {
      "inputs": [],
      "name": "getToken",
      "outputs": [
        {
          "internalType": "address",
          "name": "",
          "type": "address"
        }
      ],
      "stateMutability": "view",
      "type": "function",
      "constant": true
    },
    {
      "inputs": [],
      "name": "getSwapBalance",
      "outputs": [
        {
          "internalType": "uint256",
          "name": "",
          "type": "uint256"
        }
      ],
      "stateMutability": "view",
      "type": "function",
      "constant": true
    },
    {
      "inputs": [],
      "name": "getThisAddress",
      "outputs": [
        {
          "internalType": "address",
          "name": "",
          "type": "address"
        }
      ],
      "stateMutability": "view",
      "type": "function",
      "constant": true
    },
    {
      "inputs": [],
      "name": "getMsgSender",
      "outputs": [
        {
          "internalType": "address",
          "name": "",
          "type": "address"
        }
      ],
      "stateMutability": "view",
      "type": "function",
      "constant": true
    },
    {
      "inputs": [],
      "name": "buyToken",
      "outputs": [],
      "stateMutability": "payable",
      "type": "function",
      "payable": true
    },
    {
      "inputs": [
        {
          "internalType": "uint256",
          "name": "_amount",
          "type": "uint256"
        }
      ],
      "name": "sellToken",
      "outputs": [],
      "stateMutability": "payable",
      "type": "function",
      "payable": true
    }
  ],
  "bytecode": "0x6080604052606460015534801561001557600080fd5b50604051610b0c380380610b0c833981810160405281019061003791906100f2565b806000806101000a81548173ffffffffffffffffffffffffffffffffffffffff021916908373ffffffffffffffffffffffffffffffffffffffff1602179055505061011f565b600080fd5b600073ffffffffffffffffffffffffffffffffffffffff82169050919050565b60006100ad82610082565b9050919050565b60006100bf826100a2565b9050919050565b6100cf816100b4565b81146100da57600080fd5b50565b6000815190506100ec816100c6565b92915050565b6000602082840312156101085761010761007d565b5b6000610116848285016100dd565b91505092915050565b6109de8061012e6000396000f3fe60806040526004361061007b5760003560e01c8063a48217191161004e578063a48217191461011d578063c7b00aad14610127578063d395382214610152578063fc0c546a1461017d5761007b565b806321df0da7146100805780632397e4d7146100ab5780632c4e722e146100c75780637a6ce2e1146100f2575b600080fd5b34801561008c57600080fd5b506100956101a8565b6040516100a2919061062c565b60405180910390f35b6100c560048036038101906100c09190610682565b6101d1565b005b3480156100d357600080fd5b506100dc610380565b6040516100e991906106be565b60405180910390f35b3480156100fe57600080fd5b50610107610386565b604051610114919061062c565b60405180910390f35b61012561038e565b005b34801561013357600080fd5b5061013c61051d565b60405161014991906106be565b60405180910390f35b34801561015e57600080fd5b506101676105bf565b604051610174919061062c565b60405180910390f35b34801561018957600080fd5b506101926105c7565b60405161019f9190610738565b60405180910390f35b60008060009054906101000a900473ffffffffffffffffffffffffffffffffffffffff16905090565b8060008054906101000a900473ffffffffffffffffffffffffffffffffffffffff1673ffffffffffffffffffffffffffffffffffffffff166370a08231336040518263ffffffff1660e01b815260040161022b919061062c565b602060405180830381865afa158015610248573d6000803e3d6000fd5b505050506040513d601f19601f8201168201806040525081019061026c9190610768565b1161027657600080fd5b60006001548261028691906107f3565b905080471161029457600080fd5b60008054906101000a900473ffffffffffffffffffffffffffffffffffffffff1673ffffffffffffffffffffffffffffffffffffffff166323b872dd3330856040518463ffffffff1660e01b81526004016102f193929190610824565b6020604051808303816000875af1158015610310573d6000803e3d6000fd5b505050506040513d601f19601f820116820180604052508101906103349190610893565b503373ffffffffffffffffffffffffffffffffffffffff166108fc829081150290604051600060405180830381858888f1935050505015801561037b573d6000803e3d6000fd5b505050565b60015481565b600033905090565b60006001543461039e91906108c0565b90508060008054906101000a900473ffffffffffffffffffffffffffffffffffffffff1673ffffffffffffffffffffffffffffffffffffffff166370a08231306040518263ffffffff1660e01b81526004016103fa919061062c565b602060405180830381865afa158015610417573d6000803e3d6000fd5b505050506040513d601f19601f8201168201806040525081019061043b9190610768565b1161047b576040517f08c379a00000000000000000000000000000000000000000000000000000000081526004016104729061095f565b60405180910390fd5b60008054906101000a900473ffffffffffffffffffffffffffffffffffffffff1673ffffffffffffffffffffffffffffffffffffffff1663a9059cbb33836040518363ffffffff1660e01b81526004016104d692919061097f565b6020604051808303816000875af11580156104f5573d6000803e3d6000fd5b505050506040513d601f19601f820116820180604052508101906105199190610893565b5050565b60008060009054906101000a900473ffffffffffffffffffffffffffffffffffffffff1673ffffffffffffffffffffffffffffffffffffffff166370a08231336040518263ffffffff1660e01b8152600401610579919061062c565b602060405180830381865afa158015610596573d6000803e3d6000fd5b505050506040513d601f19601f820116820180604052508101906105ba9190610768565b905090565b600030905090565b60008054906101000a900473ffffffffffffffffffffffffffffffffffffffff1681565b600073ffffffffffffffffffffffffffffffffffffffff82169050919050565b6000610616826105eb565b9050919050565b6106268161060b565b82525050565b6000602082019050610641600083018461061d565b92915050565b600080fd5b6000819050919050565b61065f8161064c565b811461066a57600080fd5b50565b60008135905061067c81610656565b92915050565b60006020828403121561069857610697610647565b5b60006106a68482850161066d565b91505092915050565b6106b88161064c565b82525050565b60006020820190506106d360008301846106af565b92915050565b6000819050919050565b60006106fe6106f96106f4846105eb565b6106d9565b6105eb565b9050919050565b6000610710826106e3565b9050919050565b600061072282610705565b9050919050565b61073281610717565b82525050565b600060208201905061074d6000830184610729565b92915050565b60008151905061076281610656565b92915050565b60006020828403121561077e5761077d610647565b5b600061078c84828501610753565b91505092915050565b7f4e487b7100000000000000000000000000000000000000000000000000000000600052601260045260246000fd5b7f4e487b7100000000000000000000000000000000000000000000000000000000600052601160045260246000fd5b60006107fe8261064c565b91506108098361064c565b92508261081957610818610795565b5b828204905092915050565b6000606082019050610839600083018661061d565b610846602083018561061d565b61085360408301846106af565b949350505050565b60008115159050919050565b6108708161085b565b811461087b57600080fd5b50565b60008151905061088d81610867565b92915050565b6000602082840312156108a9576108a8610647565b5b60006108b78482850161087e565b91505092915050565b60006108cb8261064c565b91506108d68361064c565b92508282026108e48161064c565b915082820484148315176108fb576108fa6107c4565b5b5092915050565b600082825260208201905092915050565b7f6572726f72205b315d0000000000000000000000000000000000000000000000600082015250565b6000610949600983610902565b915061095482610913565b602082019050919050565b600060208201905081810360008301526109788161093c565b9050919050565b6000604082019050610994600083018561061d565b6109a160208301846106af565b939250505056fea26469706673582212202444a14ed7d244b5ed43214821437f17f35ccdcdc485847d1cd246a48bf5d67164736f6c63430008110033",
  "immutableReferences": {},
  "source": "// SPDX-License-Identifier: GPL-3.0\npragma solidity >=0.7.0 <0.9.0;\n\nimport \"@openzeppelin/contracts/token/ERC20/ERC20.sol\";\n\ncontract EthSwap {\n    ERC20 public token;\n\n    uint256 public rate = 100;\n\n    constructor(ERC20 _token) {\n        token = _token;\n    }\n\n    function getToken() public view returns (address) {\n        return address(token);\n    }\n\n    function getSwapBalance() public view returns (uint256) {\n        return token.balanceOf(msg.sender);\n    }\n\n    function getThisAddress() public view returns (address) {\n        return address(this);\n    }\n\n    function getMsgSender() public view returns (address) {\n        return msg.sender;\n    }\n\n    // function getTokenOwner() public view returns (address) {\n    //     return token._owner();\n    // }\n\n    function buyToken() public payable {\n        uint256 tokenAmount = msg.value * rate;\n        require(token.balanceOf(address(this)) > tokenAmount, \"error [1]\");\n        token.transfer(msg.sender, tokenAmount);\n    }\n\n    function sellToken(uint256 _amount) public payable {\n        require(token.balanceOf(msg.sender) > _amount);\n        uint256 etherAmount = _amount / rate;\n\n        require(address(this).balance > etherAmount);\n        token.transferFrom(msg.sender, address(this), _amount);\n        payable(msg.sender).transfer(etherAmount);\n    }\n}\n",
  "sourcePath": "/home/dd/URCLASS/BEB-07-final-Luxury-Guarantee/server/utils/contracts/swapTest.sol",
  "compiler": {
    "name": "solc",
    "version": "0.8.17+commit.8df45f5f.Emscripten.clang"
  },
  "schemaVersion": "3.4.11",
  "updatedAt": "2023-01-31T00:00:22.064Z",
  "networkType": "ethereum",
  "devdoc": {
    "kind": "dev",
    "methods": {},
    "version": 1
  },
  "userdoc": {
    "kind": "user",
    "methods": {},
    "version": 1
  }
}