{
  "contractName": "MyLuxury",
  "abi": [
    {
      "inputs": [],
      "stateMutability": "nonpayable",
      "type": "constructor"
    },
    {
      "anonymous": false,
      "inputs": [
        {
          "indexed": true,
          "internalType": "address",
          "name": "owner",
          "type": "address"
        },
        {
          "indexed": true,
          "internalType": "address",
          "name": "approved",
          "type": "address"
        },
        {
          "indexed": true,
          "internalType": "uint256",
          "name": "tokenId",
          "type": "uint256"
        }
      ],
      "name": "Approval",
      "type": "event"
    },
    {
      "anonymous": false,
      "inputs": [
        {
          "indexed": true,
          "internalType": "address",
          "name": "owner",
          "type": "address"
        },
        {
          "indexed": true,
          "internalType": "address",
          "name": "operator",
          "type": "address"
        },
        {
          "indexed": false,
          "internalType": "bool",
          "name": "approved",
          "type": "bool"
        }
      ],
      "name": "ApprovalForAll",
      "type": "event"
    },
    {
      "anonymous": false,
      "inputs": [
        {
          "indexed": true,
          "internalType": "address",
          "name": "previousOwner",
          "type": "address"
        },
        {
          "indexed": true,
          "internalType": "address",
          "name": "newOwner",
          "type": "address"
        }
      ],
      "name": "OwnershipTransferred",
      "type": "event"
    },
    {
      "anonymous": false,
      "inputs": [
        {
          "indexed": true,
          "internalType": "address",
          "name": "from",
          "type": "address"
        },
        {
          "indexed": true,
          "internalType": "address",
          "name": "to",
          "type": "address"
        },
        {
          "indexed": true,
          "internalType": "uint256",
          "name": "tokenId",
          "type": "uint256"
        }
      ],
      "name": "Transfer",
      "type": "event"
    },
    {
      "inputs": [
        {
          "internalType": "address",
          "name": "to",
          "type": "address"
        },
        {
          "internalType": "uint256",
          "name": "tokenId",
          "type": "uint256"
        }
      ],
      "name": "approve",
      "outputs": [],
      "stateMutability": "nonpayable",
      "type": "function"
    },
    {
      "inputs": [
        {
          "internalType": "address",
          "name": "owner",
          "type": "address"
        }
      ],
      "name": "balanceOf",
      "outputs": [
        {
          "internalType": "uint256",
          "name": "",
          "type": "uint256"
        }
      ],
      "stateMutability": "view",
      "type": "function"
    },
    {
      "inputs": [
        {
          "internalType": "uint256",
          "name": "tokenId",
          "type": "uint256"
        }
      ],
      "name": "getApproved",
      "outputs": [
        {
          "internalType": "address",
          "name": "",
          "type": "address"
        }
      ],
      "stateMutability": "view",
      "type": "function"
    },
    {
      "inputs": [
        {
          "internalType": "address",
          "name": "owner",
          "type": "address"
        },
        {
          "internalType": "address",
          "name": "operator",
          "type": "address"
        }
      ],
      "name": "isApprovedForAll",
      "outputs": [
        {
          "internalType": "bool",
          "name": "",
          "type": "bool"
        }
      ],
      "stateMutability": "view",
      "type": "function"
    },
    {
      "inputs": [],
      "name": "name",
      "outputs": [
        {
          "internalType": "string",
          "name": "",
          "type": "string"
        }
      ],
      "stateMutability": "view",
      "type": "function"
    },
    {
      "inputs": [],
      "name": "owner",
      "outputs": [
        {
          "internalType": "address",
          "name": "",
          "type": "address"
        }
      ],
      "stateMutability": "view",
      "type": "function"
    },
    {
      "inputs": [
        {
          "internalType": "uint256",
          "name": "tokenId",
          "type": "uint256"
        }
      ],
      "name": "ownerOf",
      "outputs": [
        {
          "internalType": "address",
          "name": "",
          "type": "address"
        }
      ],
      "stateMutability": "view",
      "type": "function"
    },
    {
      "inputs": [],
      "name": "renounceOwnership",
      "outputs": [],
      "stateMutability": "nonpayable",
      "type": "function"
    },
    {
      "inputs": [
        {
          "internalType": "address",
          "name": "from",
          "type": "address"
        },
        {
          "internalType": "address",
          "name": "to",
          "type": "address"
        },
        {
          "internalType": "uint256",
          "name": "tokenId",
          "type": "uint256"
        }
      ],
      "name": "safeTransferFrom",
      "outputs": [],
      "stateMutability": "nonpayable",
      "type": "function"
    },
    {
      "inputs": [
        {
          "internalType": "address",
          "name": "from",
          "type": "address"
        },
        {
          "internalType": "address",
          "name": "to",
          "type": "address"
        },
        {
          "internalType": "uint256",
          "name": "tokenId",
          "type": "uint256"
        },
        {
          "internalType": "bytes",
          "name": "data",
          "type": "bytes"
        }
      ],
      "name": "safeTransferFrom",
      "outputs": [],
      "stateMutability": "nonpayable",
      "type": "function"
    },
    {
      "inputs": [
        {
          "internalType": "address",
          "name": "operator",
          "type": "address"
        },
        {
          "internalType": "bool",
          "name": "approved",
          "type": "bool"
        }
      ],
      "name": "setApprovalForAll",
      "outputs": [],
      "stateMutability": "nonpayable",
      "type": "function"
    },
    {
      "inputs": [],
      "name": "symbol",
      "outputs": [
        {
          "internalType": "string",
          "name": "",
          "type": "string"
        }
      ],
      "stateMutability": "view",
      "type": "function"
    },
    {
      "inputs": [
        {
          "internalType": "uint256",
          "name": "index",
          "type": "uint256"
        }
      ],
      "name": "tokenByIndex",
      "outputs": [
        {
          "internalType": "uint256",
          "name": "",
          "type": "uint256"
        }
      ],
      "stateMutability": "view",
      "type": "function"
    },
    {
      "inputs": [
        {
          "internalType": "address",
          "name": "owner",
          "type": "address"
        },
        {
          "internalType": "uint256",
          "name": "index",
          "type": "uint256"
        }
      ],
      "name": "tokenOfOwnerByIndex",
      "outputs": [
        {
          "internalType": "uint256",
          "name": "",
          "type": "uint256"
        }
      ],
      "stateMutability": "view",
      "type": "function"
    },
    {
      "inputs": [],
      "name": "totalSupply",
      "outputs": [
        {
          "internalType": "uint256",
          "name": "",
          "type": "uint256"
        }
      ],
      "stateMutability": "view",
      "type": "function"
    },
    {
      "inputs": [
        {
          "internalType": "address",
          "name": "from",
          "type": "address"
        },
        {
          "internalType": "address",
          "name": "to",
          "type": "address"
        },
        {
          "internalType": "uint256",
          "name": "tokenId",
          "type": "uint256"
        }
      ],
      "name": "transferFrom",
      "outputs": [],
      "stateMutability": "nonpayable",
      "type": "function"
    },
    {
      "inputs": [
        {
          "internalType": "address",
          "name": "newOwner",
          "type": "address"
        }
      ],
      "name": "transferOwnership",
      "outputs": [],
      "stateMutability": "nonpayable",
      "type": "function"
    },
    {
      "inputs": [
        {
          "internalType": "bytes4",
          "name": "interfaceId",
          "type": "bytes4"
        }
      ],
      "name": "supportsInterface",
      "outputs": [
        {
          "internalType": "bool",
          "name": "",
          "type": "bool"
        }
      ],
      "stateMutability": "view",
      "type": "function"
    },
    {
      "inputs": [
        {
          "internalType": "uint256",
          "name": "tokenId",
          "type": "uint256"
        }
      ],
      "name": "tokenURI",
      "outputs": [
        {
          "internalType": "string",
          "name": "",
          "type": "string"
        }
      ],
      "stateMutability": "view",
      "type": "function"
    },
    {
      "inputs": [
        {
          "internalType": "string",
          "name": "tokenURI",
          "type": "string"
        },
        {
          "internalType": "address",
          "name": "receiver",
          "type": "address"
        }
      ],
      "name": "mintNFT",
      "outputs": [
        {
          "internalType": "uint256",
          "name": "",
          "type": "uint256"
        }
      ],
      "stateMutability": "nonpayable",
      "type": "function"
    },
    {
      "inputs": [
        {
          "internalType": "address",
          "name": "_LuxuryTokenOwner",
          "type": "address"
        }
      ],
      "name": "getLuxuryToken",
      "outputs": [
        {
          "components": [
            {
              "internalType": "uint256",
              "name": "luxuryTokenId",
              "type": "uint256"
            },
            {
              "internalType": "string",
              "name": "luxuryTokenURI",
              "type": "string"
            }
          ],
          "internalType": "struct MyLuxury.LuxuryTokenData[]",
          "name": "",
          "type": "tuple[]"
        }
      ],
      "stateMutability": "view",
      "type": "function"
    }
  ],
  "bytecode": "0x60806040523480156200001157600080fd5b506040518060400160405280600881526020017f4d794c75787572790000000000000000000000000000000000000000000000008152506040518060400160405280600481526020017f4d4c55580000000000000000000000000000000000000000000000000000000081525081600090816200008f919062000412565b508060019081620000a1919062000412565b505050620000c4620000b8620000ca60201b60201c565b620000d260201b60201c565b620004f9565b600033905090565b6000600760009054906101000a900473ffffffffffffffffffffffffffffffffffffffff16905081600760006101000a81548173ffffffffffffffffffffffffffffffffffffffff021916908373ffffffffffffffffffffffffffffffffffffffff1602179055508173ffffffffffffffffffffffffffffffffffffffff168173ffffffffffffffffffffffffffffffffffffffff167f8be0079c531659141344cd1fd0a4f28419497f9722a3daafe3b4186f6b6457e060405160405180910390a35050565b600081519050919050565b7f4e487b7100000000000000000000000000000000000000000000000000000000600052604160045260246000fd5b7f4e487b7100000000000000000000000000000000000000000000000000000000600052602260045260246000fd5b600060028204905060018216806200021a57607f821691505b60208210810362000230576200022f620001d2565b5b50919050565b60008190508160005260206000209050919050565b60006020601f8301049050919050565b600082821b905092915050565b6000600883026200029a7fffffffffffffffffffffffffffffffffffffffffffffffffffffffffffffffff826200025b565b620002a686836200025b565b95508019841693508086168417925050509392505050565b6000819050919050565b6000819050919050565b6000620002f3620002ed620002e784620002be565b620002c8565b620002be565b9050919050565b6000819050919050565b6200030f83620002d2565b620003276200031e82620002fa565b84845462000268565b825550505050565b600090565b6200033e6200032f565b6200034b81848462000304565b505050565b5b8181101562000373576200036760008262000334565b60018101905062000351565b5050565b601f821115620003c2576200038c8162000236565b62000397846200024b565b81016020851015620003a7578190505b620003bf620003b6856200024b565b83018262000350565b50505b505050565b600082821c905092915050565b6000620003e760001984600802620003c7565b1980831691505092915050565b6000620004028383620003d4565b9150826002028217905092915050565b6200041d8262000198565b67ffffffffffffffff811115620004395762000438620001a3565b5b62000445825462000201565b6200045282828562000377565b600060209050601f8311600181146200048a576000841562000475578287015190505b620004818582620003f4565b865550620004f1565b601f1984166200049a8662000236565b60005b82811015620004c4578489015182556001820191506020850194506020810190506200049d565b86831015620004e45784890151620004e0601f891682620003d4565b8355505b6001600288020188555050505b505050505050565b613c0580620005096000396000f3fe608060405234801561001057600080fd5b50600436106101375760003560e01c80636352211e116100b857806395d89b411161007c57806395d89b4114610374578063a22cb46514610392578063b88d4fde146103ae578063c87b56dd146103ca578063e985e9c5146103fa578063f2fde38b1461042a57610137565b80636352211e146102bc57806370a08231146102ec578063715018a61461031c578063836c0a61146103265780638da5cb5b1461035657610137565b806318160ddd116100ff57806318160ddd1461020657806323b872dd146102245780632f745c591461024057806342842e0e146102705780634f6ccce71461028c57610137565b806301ffc9a71461013c57806304f322791461016c57806306fdde031461019c578063081812fc146101ba578063095ea7b3146101ea575b600080fd5b61015660048036038101906101519190612589565b610446565b60405161016391906125d1565b60405180910390f35b61018660048036038101906101819190612790565b610458565b6040516101939190612805565b60405180910390f35b6101a46104b9565b6040516101b1919061289f565b60405180910390f35b6101d460048036038101906101cf91906128ed565b61054b565b6040516101e19190612929565b60405180910390f35b61020460048036038101906101ff9190612944565b610591565b005b61020e6106a8565b60405161021b9190612805565b60405180910390f35b61023e60048036038101906102399190612984565b6106b5565b005b61025a60048036038101906102559190612944565b610715565b6040516102679190612805565b60405180910390f35b61028a60048036038101906102859190612984565b6107ba565b005b6102a660048036038101906102a191906128ed565b6107da565b6040516102b39190612805565b60405180910390f35b6102d660048036038101906102d191906128ed565b61084b565b6040516102e39190612929565b60405180910390f35b610306600480360381019061030191906129d7565b6108d1565b6040516103139190612805565b60405180910390f35b610324610988565b005b610340600480360381019061033b91906129d7565b61099c565b60405161034d9190612b5c565b60405180910390f35b61035e610b0f565b60405161036b9190612929565b60405180910390f35b61037c610b39565b604051610389919061289f565b60405180910390f35b6103ac60048036038101906103a79190612baa565b610bcb565b005b6103c860048036038101906103c39190612c8b565b610be1565b005b6103e460048036038101906103df91906128ed565b610c43565b6040516103f1919061289f565b60405180910390f35b610414600480360381019061040f9190612d0e565b610c55565b60405161042191906125d1565b60405180910390f35b610444600480360381019061043f91906129d7565b610ce9565b005b600061045182610d6c565b9050919050565b6000610462610de6565b61046c600c610e64565b6000610478600c610e7a565b90506104848382610e88565b61048e81856110a5565b83600d600083815260200190815260200160002090816104ae9190612f5a565b508091505092915050565b6060600080546104c890612d7d565b80601f01602080910402602001604051908101604052809291908181526020018280546104f490612d7d565b80156105415780601f1061051657610100808354040283529160200191610541565b820191906000526020600020905b81548152906001019060200180831161052457829003601f168201915b5050505050905090565b600061055682611112565b6004600083815260200190815260200160002060009054906101000a900473ffffffffffffffffffffffffffffffffffffffff169050919050565b600061059c8261084b565b90508073ffffffffffffffffffffffffffffffffffffffff168373ffffffffffffffffffffffffffffffffffffffff160361060c576040517f08c379a00000000000000000000000000000000000000000000000000000000081526004016106039061309e565b60405180910390fd5b8073ffffffffffffffffffffffffffffffffffffffff1661062b61115d565b73ffffffffffffffffffffffffffffffffffffffff16148061065a57506106598161065461115d565b610c55565b5b610699576040517f08c379a000000000000000000000000000000000000000000000000000000000815260040161069090613130565b60405180910390fd5b6106a38383611165565b505050565b6000600a80549050905090565b6106c66106c061115d565b8261121e565b610705576040517f08c379a00000000000000000000000000000000000000000000000000000000081526004016106fc906131c2565b60405180910390fd5b6107108383836112b3565b505050565b6000610720836108d1565b8210610761576040517f08c379a000000000000000000000000000000000000000000000000000000000815260040161075890613254565b60405180910390fd5b600860008473ffffffffffffffffffffffffffffffffffffffff1673ffffffffffffffffffffffffffffffffffffffff168152602001908152602001600020600083815260200190815260200160002054905092915050565b6107d583838360405180602001604052806000815250610be1565b505050565b60006107e46106a8565b8210610825576040517f08c379a000000000000000000000000000000000000000000000000000000000815260040161081c906132e6565b60405180910390fd5b600a828154811061083957610838613306565b5b90600052602060002001549050919050565b600080610857836115ac565b9050600073ffffffffffffffffffffffffffffffffffffffff168173ffffffffffffffffffffffffffffffffffffffff16036108c8576040517f08c379a00000000000000000000000000000000000000000000000000000000081526004016108bf90613381565b60405180910390fd5b80915050919050565b60008073ffffffffffffffffffffffffffffffffffffffff168273ffffffffffffffffffffffffffffffffffffffff1603610941576040517f08c379a000000000000000000000000000000000000000000000000000000000815260040161093890613413565b60405180910390fd5b600360008373ffffffffffffffffffffffffffffffffffffffff1673ffffffffffffffffffffffffffffffffffffffff168152602001908152602001600020549050919050565b610990610de6565b61099a60006115e9565b565b606060006109a9836108d1565b905060008167ffffffffffffffff8111156109c7576109c6612607565b5b604051908082528060200260200182016040528015610a0057816020015b6109ed612503565b8152602001906001900390816109e55790505b50905060005b82811015610b04576000610a1a8683610715565b90506000600d60008381526020019081526020016000208054610a3c90612d7d565b80601f0160208091040260200160405190810160405280929190818152602001828054610a6890612d7d565b8015610ab55780601f10610a8a57610100808354040283529160200191610ab5565b820191906000526020600020905b815481529060010190602001808311610a9857829003601f168201915b50505050509050604051806040016040528083815260200182815250848481518110610ae457610ae3613306565b5b602002602001018190525050508080610afc90613462565b915050610a06565b508092505050919050565b6000600760009054906101000a900473ffffffffffffffffffffffffffffffffffffffff16905090565b606060018054610b4890612d7d565b80601f0160208091040260200160405190810160405280929190818152602001828054610b7490612d7d565b8015610bc15780601f10610b9657610100808354040283529160200191610bc1565b820191906000526020600020905b815481529060010190602001808311610ba457829003601f168201915b5050505050905090565b610bdd610bd661115d565b83836116af565b5050565b610bf2610bec61115d565b8361121e565b610c31576040517f08c379a0000000000000000000000000000000000000000000000000000000008152600401610c28906131c2565b60405180910390fd5b610c3d8484848461181b565b50505050565b6060610c4e82611877565b9050919050565b6000600560008473ffffffffffffffffffffffffffffffffffffffff1673ffffffffffffffffffffffffffffffffffffffff16815260200190815260200160002060008373ffffffffffffffffffffffffffffffffffffffff1673ffffffffffffffffffffffffffffffffffffffff16815260200190815260200160002060009054906101000a900460ff16905092915050565b610cf1610de6565b600073ffffffffffffffffffffffffffffffffffffffff168173ffffffffffffffffffffffffffffffffffffffff1603610d60576040517f08c379a0000000000000000000000000000000000000000000000000000000008152600401610d579061351c565b60405180910390fd5b610d69816115e9565b50565b60007f780e9d63000000000000000000000000000000000000000000000000000000007bffffffffffffffffffffffffffffffffffffffffffffffffffffffff1916827bffffffffffffffffffffffffffffffffffffffffffffffffffffffff19161480610ddf5750610dde82611989565b5b9050919050565b610dee61115d565b73ffffffffffffffffffffffffffffffffffffffff16610e0c610b0f565b73ffffffffffffffffffffffffffffffffffffffff1614610e62576040517f08c379a0000000000000000000000000000000000000000000000000000000008152600401610e5990613588565b60405180910390fd5b565b6001816000016000828254019250508190555050565b600081600001549050919050565b600073ffffffffffffffffffffffffffffffffffffffff168273ffffffffffffffffffffffffffffffffffffffff1603610ef7576040517f08c379a0000000000000000000000000000000000000000000000000000000008152600401610eee906135f4565b60405180910390fd5b610f0081611a6b565b15610f40576040517f08c379a0000000000000000000000000000000000000000000000000000000008152600401610f3790613660565b60405180910390fd5b610f4e600083836001611aac565b610f5781611a6b565b15610f97576040517f08c379a0000000000000000000000000000000000000000000000000000000008152600401610f8e90613660565b60405180910390fd5b6001600360008473ffffffffffffffffffffffffffffffffffffffff1673ffffffffffffffffffffffffffffffffffffffff16815260200190815260200160002060008282540192505081905550816002600083815260200190815260200160002060006101000a81548173ffffffffffffffffffffffffffffffffffffffff021916908373ffffffffffffffffffffffffffffffffffffffff160217905550808273ffffffffffffffffffffffffffffffffffffffff16600073ffffffffffffffffffffffffffffffffffffffff167fddf252ad1be2c89b69c2b068fc378daa952ba7f163c4a11628f55a4df523b3ef60405160405180910390a46110a1600083836001611abf565b5050565b6110ae82611a6b565b6110ed576040517f08c379a00000000000000000000000000000000000000000000000000000000081526004016110e4906136f2565b60405180910390fd5b8060066000848152602001908152602001600020908161110d9190612f5a565b505050565b61111b81611a6b565b61115a576040517f08c379a000000000000000000000000000000000000000000000000000000000815260040161115190613381565b60405180910390fd5b50565b600033905090565b816004600083815260200190815260200160002060006101000a81548173ffffffffffffffffffffffffffffffffffffffff021916908373ffffffffffffffffffffffffffffffffffffffff160217905550808273ffffffffffffffffffffffffffffffffffffffff166111d88361084b565b73ffffffffffffffffffffffffffffffffffffffff167f8c5be1e5ebec7d5bd14f71427d1e84f3dd0314c0f7b2291e5b200ac8c7c3b92560405160405180910390a45050565b60008061122a8361084b565b90508073ffffffffffffffffffffffffffffffffffffffff168473ffffffffffffffffffffffffffffffffffffffff16148061126c575061126b8185610c55565b5b806112aa57508373ffffffffffffffffffffffffffffffffffffffff166112928461054b565b73ffffffffffffffffffffffffffffffffffffffff16145b91505092915050565b8273ffffffffffffffffffffffffffffffffffffffff166112d38261084b565b73ffffffffffffffffffffffffffffffffffffffff1614611329576040517f08c379a000000000000000000000000000000000000000000000000000000000815260040161132090613784565b60405180910390fd5b600073ffffffffffffffffffffffffffffffffffffffff168273ffffffffffffffffffffffffffffffffffffffff1603611398576040517f08c379a000000000000000000000000000000000000000000000000000000000815260040161138f90613816565b60405180910390fd5b6113a58383836001611aac565b8273ffffffffffffffffffffffffffffffffffffffff166113c58261084b565b73ffffffffffffffffffffffffffffffffffffffff161461141b576040517f08c379a000000000000000000000000000000000000000000000000000000000815260040161141290613784565b60405180910390fd5b6004600082815260200190815260200160002060006101000a81549073ffffffffffffffffffffffffffffffffffffffff02191690556001600360008573ffffffffffffffffffffffffffffffffffffffff1673ffffffffffffffffffffffffffffffffffffffff168152602001908152602001600020600082825403925050819055506001600360008473ffffffffffffffffffffffffffffffffffffffff1673ffffffffffffffffffffffffffffffffffffffff16815260200190815260200160002060008282540192505081905550816002600083815260200190815260200160002060006101000a81548173ffffffffffffffffffffffffffffffffffffffff021916908373ffffffffffffffffffffffffffffffffffffffff160217905550808273ffffffffffffffffffffffffffffffffffffffff168473ffffffffffffffffffffffffffffffffffffffff167fddf252ad1be2c89b69c2b068fc378daa952ba7f163c4a11628f55a4df523b3ef60405160405180910390a46115a78383836001611abf565b505050565b60006002600083815260200190815260200160002060009054906101000a900473ffffffffffffffffffffffffffffffffffffffff169050919050565b6000600760009054906101000a900473ffffffffffffffffffffffffffffffffffffffff16905081600760006101000a81548173ffffffffffffffffffffffffffffffffffffffff021916908373ffffffffffffffffffffffffffffffffffffffff1602179055508173ffffffffffffffffffffffffffffffffffffffff168173ffffffffffffffffffffffffffffffffffffffff167f8be0079c531659141344cd1fd0a4f28419497f9722a3daafe3b4186f6b6457e060405160405180910390a35050565b8173ffffffffffffffffffffffffffffffffffffffff168373ffffffffffffffffffffffffffffffffffffffff160361171d576040517f08c379a000000000000000000000000000000000000000000000000000000000815260040161171490613882565b60405180910390fd5b80600560008573ffffffffffffffffffffffffffffffffffffffff1673ffffffffffffffffffffffffffffffffffffffff16815260200190815260200160002060008473ffffffffffffffffffffffffffffffffffffffff1673ffffffffffffffffffffffffffffffffffffffff16815260200190815260200160002060006101000a81548160ff0219169083151502179055508173ffffffffffffffffffffffffffffffffffffffff168373ffffffffffffffffffffffffffffffffffffffff167f17307eab39ab6107e8899845ad3d59bd9653f200f220920489ca2b5937696c318360405161180e91906125d1565b60405180910390a3505050565b6118268484846112b3565b61183284848484611ac5565b611871576040517f08c379a000000000000000000000000000000000000000000000000000000000815260040161186890613914565b60405180910390fd5b50505050565b606061188282611112565b60006006600084815260200190815260200160002080546118a290612d7d565b80601f01602080910402602001604051908101604052809291908181526020018280546118ce90612d7d565b801561191b5780601f106118f05761010080835404028352916020019161191b565b820191906000526020600020905b8154815290600101906020018083116118fe57829003601f168201915b50505050509050600061192c611c4c565b90506000815103611941578192505050611984565b60008251111561197657808260405160200161195e929190613970565b60405160208183030381529060405292505050611984565b61197f84611c63565b925050505b919050565b60007f80ac58cd000000000000000000000000000000000000000000000000000000007bffffffffffffffffffffffffffffffffffffffffffffffffffffffff1916827bffffffffffffffffffffffffffffffffffffffffffffffffffffffff19161480611a5457507f5b5e139f000000000000000000000000000000000000000000000000000000007bffffffffffffffffffffffffffffffffffffffffffffffffffffffff1916827bffffffffffffffffffffffffffffffffffffffffffffffffffffffff1916145b80611a645750611a6382611ccb565b5b9050919050565b60008073ffffffffffffffffffffffffffffffffffffffff16611a8d836115ac565b73ffffffffffffffffffffffffffffffffffffffff1614159050919050565b611ab98484846001611d35565b50505050565b50505050565b6000611ae68473ffffffffffffffffffffffffffffffffffffffff16611e93565b15611c3f578373ffffffffffffffffffffffffffffffffffffffff1663150b7a02611b0f61115d565b8786866040518563ffffffff1660e01b8152600401611b3194939291906139e9565b6020604051808303816000875af1925050508015611b6d57506040513d601f19601f82011682018060405250810190611b6a9190613a4a565b60015b611bef573d8060008114611b9d576040519150601f19603f3d011682016040523d82523d6000602084013e611ba2565b606091505b506000815103611be7576040517f08c379a0000000000000000000000000000000000000000000000000000000008152600401611bde90613914565b60405180910390fd5b805181602001fd5b63150b7a0260e01b7bffffffffffffffffffffffffffffffffffffffffffffffffffffffff1916817bffffffffffffffffffffffffffffffffffffffffffffffffffffffff191614915050611c44565b600190505b949350505050565b606060405180602001604052806000815250905090565b6060611c6e82611112565b6000611c78611c4c565b90506000815111611c985760405180602001604052806000815250611cc3565b80611ca284611eb6565b604051602001611cb3929190613970565b6040516020818303038152906040525b915050919050565b60007f01ffc9a7000000000000000000000000000000000000000000000000000000007bffffffffffffffffffffffffffffffffffffffffffffffffffffffff1916827bffffffffffffffffffffffffffffffffffffffffffffffffffffffff1916149050919050565b611d4184848484611f84565b6001811115611d85576040517f08c379a0000000000000000000000000000000000000000000000000000000008152600401611d7c90613ae9565b60405180910390fd5b6000829050600073ffffffffffffffffffffffffffffffffffffffff168573ffffffffffffffffffffffffffffffffffffffff1603611dcc57611dc7816120aa565b611e0b565b8373ffffffffffffffffffffffffffffffffffffffff168573ffffffffffffffffffffffffffffffffffffffff1614611e0a57611e0985826120f3565b5b5b600073ffffffffffffffffffffffffffffffffffffffff168473ffffffffffffffffffffffffffffffffffffffff1603611e4d57611e4881612260565b611e8c565b8473ffffffffffffffffffffffffffffffffffffffff168473ffffffffffffffffffffffffffffffffffffffff1614611e8b57611e8a8482612331565b5b5b5050505050565b6000808273ffffffffffffffffffffffffffffffffffffffff163b119050919050565b606060006001611ec5846123b0565b01905060008167ffffffffffffffff811115611ee457611ee3612607565b5b6040519080825280601f01601f191660200182016040528015611f165781602001600182028036833780820191505090505b509050600082602001820190505b600115611f79578080600190039150507f3031323334353637383961626364656600000000000000000000000000000000600a86061a8153600a8581611f6d57611f6c613b09565b5b04945060008503611f24575b819350505050919050565b60018111156120a457600073ffffffffffffffffffffffffffffffffffffffff168473ffffffffffffffffffffffffffffffffffffffff16146120185780600360008673ffffffffffffffffffffffffffffffffffffffff1673ffffffffffffffffffffffffffffffffffffffff16815260200190815260200160002060008282546120109190613b38565b925050819055505b600073ffffffffffffffffffffffffffffffffffffffff168373ffffffffffffffffffffffffffffffffffffffff16146120a35780600360008573ffffffffffffffffffffffffffffffffffffffff1673ffffffffffffffffffffffffffffffffffffffff168152602001908152602001600020600082825461209b9190613b6c565b925050819055505b5b50505050565b600a80549050600b600083815260200190815260200160002081905550600a81908060018154018082558091505060019003906000526020600020016000909190919091505550565b60006001612100846108d1565b61210a9190613b38565b90506000600960008481526020019081526020016000205490508181146121ef576000600860008673ffffffffffffffffffffffffffffffffffffffff1673ffffffffffffffffffffffffffffffffffffffff168152602001908152602001600020600084815260200190815260200160002054905080600860008773ffffffffffffffffffffffffffffffffffffffff1673ffffffffffffffffffffffffffffffffffffffff168152602001908152602001600020600084815260200190815260200160002081905550816009600083815260200190815260200160002081905550505b6009600084815260200190815260200160002060009055600860008573ffffffffffffffffffffffffffffffffffffffff1673ffffffffffffffffffffffffffffffffffffffff16815260200190815260200160002060008381526020019081526020016000206000905550505050565b60006001600a805490506122749190613b38565b90506000600b60008481526020019081526020016000205490506000600a83815481106122a4576122a3613306565b5b9060005260206000200154905080600a83815481106122c6576122c5613306565b5b906000526020600020018190555081600b600083815260200190815260200160002081905550600b600085815260200190815260200160002060009055600a80548061231557612314613ba0565b5b6001900381819060005260206000200160009055905550505050565b600061233c836108d1565b905081600860008573ffffffffffffffffffffffffffffffffffffffff1673ffffffffffffffffffffffffffffffffffffffff168152602001908152602001600020600083815260200190815260200160002081905550806009600084815260200190815260200160002081905550505050565b600080600090507a184f03e93ff9f4daa797ed6e38ed64bf6a1f010000000000000000831061240e577a184f03e93ff9f4daa797ed6e38ed64bf6a1f010000000000000000838161240457612403613b09565b5b0492506040810190505b6d04ee2d6d415b85acef8100000000831061244b576d04ee2d6d415b85acef8100000000838161244157612440613b09565b5b0492506020810190505b662386f26fc10000831061247a57662386f26fc1000083816124705761246f613b09565b5b0492506010810190505b6305f5e10083106124a3576305f5e100838161249957612498613b09565b5b0492506008810190505b61271083106124c85761271083816124be576124bd613b09565b5b0492506004810190505b606483106124eb57606483816124e1576124e0613b09565b5b0492506002810190505b600a83106124fa576001810190505b80915050919050565b604051806040016040528060008152602001606081525090565b6000604051905090565b600080fd5b600080fd5b60007fffffffff0000000000000000000000000000000000000000000000000000000082169050919050565b61256681612531565b811461257157600080fd5b50565b6000813590506125838161255d565b92915050565b60006020828403121561259f5761259e612527565b5b60006125ad84828501612574565b91505092915050565b60008115159050919050565b6125cb816125b6565b82525050565b60006020820190506125e660008301846125c2565b92915050565b600080fd5b600080fd5b6000601f19601f8301169050919050565b7f4e487b7100000000000000000000000000000000000000000000000000000000600052604160045260246000fd5b61263f826125f6565b810181811067ffffffffffffffff8211171561265e5761265d612607565b5b80604052505050565b600061267161251d565b905061267d8282612636565b919050565b600067ffffffffffffffff82111561269d5761269c612607565b5b6126a6826125f6565b9050602081019050919050565b82818337600083830152505050565b60006126d56126d084612682565b612667565b9050828152602081018484840111156126f1576126f06125f1565b5b6126fc8482856126b3565b509392505050565b600082601f830112612719576127186125ec565b5b81356127298482602086016126c2565b91505092915050565b600073ffffffffffffffffffffffffffffffffffffffff82169050919050565b600061275d82612732565b9050919050565b61276d81612752565b811461277857600080fd5b50565b60008135905061278a81612764565b92915050565b600080604083850312156127a7576127a6612527565b5b600083013567ffffffffffffffff8111156127c5576127c461252c565b5b6127d185828601612704565b92505060206127e28582860161277b565b9150509250929050565b6000819050919050565b6127ff816127ec565b82525050565b600060208201905061281a60008301846127f6565b92915050565b600081519050919050565b600082825260208201905092915050565b60005b8381101561285a57808201518184015260208101905061283f565b60008484015250505050565b600061287182612820565b61287b818561282b565b935061288b81856020860161283c565b612894816125f6565b840191505092915050565b600060208201905081810360008301526128b98184612866565b905092915050565b6128ca816127ec565b81146128d557600080fd5b50565b6000813590506128e7816128c1565b92915050565b60006020828403121561290357612902612527565b5b6000612911848285016128d8565b91505092915050565b61292381612752565b82525050565b600060208201905061293e600083018461291a565b92915050565b6000806040838503121561295b5761295a612527565b5b60006129698582860161277b565b925050602061297a858286016128d8565b9150509250929050565b60008060006060848603121561299d5761299c612527565b5b60006129ab8682870161277b565b93505060206129bc8682870161277b565b92505060406129cd868287016128d8565b9150509250925092565b6000602082840312156129ed576129ec612527565b5b60006129fb8482850161277b565b91505092915050565b600081519050919050565b600082825260208201905092915050565b6000819050602082019050919050565b612a39816127ec565b82525050565b600082825260208201905092915050565b6000612a5b82612820565b612a658185612a3f565b9350612a7581856020860161283c565b612a7e816125f6565b840191505092915050565b6000604083016000830151612aa16000860182612a30565b5060208301518482036020860152612ab98282612a50565b9150508091505092915050565b6000612ad28383612a89565b905092915050565b6000602082019050919050565b6000612af282612a04565b612afc8185612a0f565b935083602082028501612b0e85612a20565b8060005b85811015612b4a5784840389528151612b2b8582612ac6565b9450612b3683612ada565b925060208a01995050600181019050612b12565b50829750879550505050505092915050565b60006020820190508181036000830152612b768184612ae7565b905092915050565b612b87816125b6565b8114612b9257600080fd5b50565b600081359050612ba481612b7e565b92915050565b60008060408385031215612bc157612bc0612527565b5b6000612bcf8582860161277b565b9250506020612be085828601612b95565b9150509250929050565b600067ffffffffffffffff821115612c0557612c04612607565b5b612c0e826125f6565b9050602081019050919050565b6000612c2e612c2984612bea565b612667565b905082815260208101848484011115612c4a57612c496125f1565b5b612c558482856126b3565b509392505050565b600082601f830112612c7257612c716125ec565b5b8135612c82848260208601612c1b565b91505092915050565b60008060008060808587031215612ca557612ca4612527565b5b6000612cb38782880161277b565b9450506020612cc48782880161277b565b9350506040612cd5878288016128d8565b925050606085013567ffffffffffffffff811115612cf657612cf561252c565b5b612d0287828801612c5d565b91505092959194509250565b60008060408385031215612d2557612d24612527565b5b6000612d338582860161277b565b9250506020612d448582860161277b565b9150509250929050565b7f4e487b7100000000000000000000000000000000000000000000000000000000600052602260045260246000fd5b60006002820490506001821680612d9557607f821691505b602082108103612da857612da7612d4e565b5b50919050565b60008190508160005260206000209050919050565b60006020601f8301049050919050565b600082821b905092915050565b600060088302612e107fffffffffffffffffffffffffffffffffffffffffffffffffffffffffffffffff82612dd3565b612e1a8683612dd3565b95508019841693508086168417925050509392505050565b6000819050919050565b6000612e57612e52612e4d846127ec565b612e32565b6127ec565b9050919050565b6000819050919050565b612e7183612e3c565b612e85612e7d82612e5e565b848454612de0565b825550505050565b600090565b612e9a612e8d565b612ea5818484612e68565b505050565b5b81811015612ec957612ebe600082612e92565b600181019050612eab565b5050565b601f821115612f0e57612edf81612dae565b612ee884612dc3565b81016020851015612ef7578190505b612f0b612f0385612dc3565b830182612eaa565b50505b505050565b600082821c905092915050565b6000612f3160001984600802612f13565b1980831691505092915050565b6000612f4a8383612f20565b9150826002028217905092915050565b612f6382612820565b67ffffffffffffffff811115612f7c57612f7b612607565b5b612f868254612d7d565b612f91828285612ecd565b600060209050601f831160018114612fc45760008415612fb2578287015190505b612fbc8582612f3e565b865550613024565b601f198416612fd286612dae565b60005b82811015612ffa57848901518255600182019150602085019450602081019050612fd5565b868310156130175784890151613013601f891682612f20565b8355505b6001600288020188555050505b505050505050565b7f4552433732313a20617070726f76616c20746f2063757272656e74206f776e6560008201527f7200000000000000000000000000000000000000000000000000000000000000602082015250565b600061308860218361282b565b91506130938261302c565b604082019050919050565b600060208201905081810360008301526130b78161307b565b9050919050565b7f4552433732313a20617070726f76652063616c6c6572206973206e6f7420746f60008201527f6b656e206f776e6572206f7220617070726f76656420666f7220616c6c000000602082015250565b600061311a603d8361282b565b9150613125826130be565b604082019050919050565b600060208201905081810360008301526131498161310d565b9050919050565b7f4552433732313a2063616c6c6572206973206e6f7420746f6b656e206f776e6560008201527f72206f7220617070726f76656400000000000000000000000000000000000000602082015250565b60006131ac602d8361282b565b91506131b782613150565b604082019050919050565b600060208201905081810360008301526131db8161319f565b9050919050565b7f455243373231456e756d657261626c653a206f776e657220696e646578206f7560008201527f74206f6620626f756e6473000000000000000000000000000000000000000000602082015250565b600061323e602b8361282b565b9150613249826131e2565b604082019050919050565b6000602082019050818103600083015261326d81613231565b9050919050565b7f455243373231456e756d657261626c653a20676c6f62616c20696e646578206f60008201527f7574206f6620626f756e64730000000000000000000000000000000000000000602082015250565b60006132d0602c8361282b565b91506132db82613274565b604082019050919050565b600060208201905081810360008301526132ff816132c3565b9050919050565b7f4e487b7100000000000000000000000000000000000000000000000000000000600052603260045260246000fd5b7f4552433732313a20696e76616c696420746f6b656e2049440000000000000000600082015250565b600061336b60188361282b565b915061337682613335565b602082019050919050565b6000602082019050818103600083015261339a8161335e565b9050919050565b7f4552433732313a2061646472657373207a65726f206973206e6f74206120766160008201527f6c6964206f776e65720000000000000000000000000000000000000000000000602082015250565b60006133fd60298361282b565b9150613408826133a1565b604082019050919050565b6000602082019050818103600083015261342c816133f0565b9050919050565b7f4e487b7100000000000000000000000000000000000000000000000000000000600052601160045260246000fd5b600061346d826127ec565b91507fffffffffffffffffffffffffffffffffffffffffffffffffffffffffffffffff820361349f5761349e613433565b5b600182019050919050565b7f4f776e61626c653a206e6577206f776e657220697320746865207a65726f206160008201527f6464726573730000000000000000000000000000000000000000000000000000602082015250565b600061350660268361282b565b9150613511826134aa565b604082019050919050565b60006020820190508181036000830152613535816134f9565b9050919050565b7f4f776e61626c653a2063616c6c6572206973206e6f7420746865206f776e6572600082015250565b600061357260208361282b565b915061357d8261353c565b602082019050919050565b600060208201905081810360008301526135a181613565565b9050919050565b7f4552433732313a206d696e7420746f20746865207a65726f2061646472657373600082015250565b60006135de60208361282b565b91506135e9826135a8565b602082019050919050565b6000602082019050818103600083015261360d816135d1565b9050919050565b7f4552433732313a20746f6b656e20616c7265616479206d696e74656400000000600082015250565b600061364a601c8361282b565b915061365582613614565b602082019050919050565b600060208201905081810360008301526136798161363d565b9050919050565b7f45524337323155524953746f726167653a2055524920736574206f66206e6f6e60008201527f6578697374656e7420746f6b656e000000000000000000000000000000000000602082015250565b60006136dc602e8361282b565b91506136e782613680565b604082019050919050565b6000602082019050818103600083015261370b816136cf565b9050919050565b7f4552433732313a207472616e736665722066726f6d20696e636f72726563742060008201527f6f776e6572000000000000000000000000000000000000000000000000000000602082015250565b600061376e60258361282b565b915061377982613712565b604082019050919050565b6000602082019050818103600083015261379d81613761565b9050919050565b7f4552433732313a207472616e7366657220746f20746865207a65726f2061646460008201527f7265737300000000000000000000000000000000000000000000000000000000602082015250565b600061380060248361282b565b915061380b826137a4565b604082019050919050565b6000602082019050818103600083015261382f816137f3565b9050919050565b7f4552433732313a20617070726f766520746f2063616c6c657200000000000000600082015250565b600061386c60198361282b565b915061387782613836565b602082019050919050565b6000602082019050818103600083015261389b8161385f565b9050919050565b7f4552433732313a207472616e7366657220746f206e6f6e20455243373231526560008201527f63656976657220696d706c656d656e7465720000000000000000000000000000602082015250565b60006138fe60328361282b565b9150613909826138a2565b604082019050919050565b6000602082019050818103600083015261392d816138f1565b9050919050565b600081905092915050565b600061394a82612820565b6139548185613934565b935061396481856020860161283c565b80840191505092915050565b600061397c828561393f565b9150613988828461393f565b91508190509392505050565b600081519050919050565b600082825260208201905092915050565b60006139bb82613994565b6139c5818561399f565b93506139d581856020860161283c565b6139de816125f6565b840191505092915050565b60006080820190506139fe600083018761291a565b613a0b602083018661291a565b613a1860408301856127f6565b8181036060830152613a2a81846139b0565b905095945050505050565b600081519050613a448161255d565b92915050565b600060208284031215613a6057613a5f612527565b5b6000613a6e84828501613a35565b91505092915050565b7f455243373231456e756d657261626c653a20636f6e736563757469766520747260008201527f616e7366657273206e6f7420737570706f727465640000000000000000000000602082015250565b6000613ad360358361282b565b9150613ade82613a77565b604082019050919050565b60006020820190508181036000830152613b0281613ac6565b9050919050565b7f4e487b7100000000000000000000000000000000000000000000000000000000600052601260045260246000fd5b6000613b43826127ec565b9150613b4e836127ec565b9250828203905081811115613b6657613b65613433565b5b92915050565b6000613b77826127ec565b9150613b82836127ec565b9250828201905080821115613b9a57613b99613433565b5b92915050565b7f4e487b7100000000000000000000000000000000000000000000000000000000600052603160045260246000fdfea2646970667358221220110575343297613da93ccbb74631aee08a1f41a084e20480518b8460a2f9489964736f6c63430008110033",
  "immutableReferences": {},
  "source": "// SPDX-License-Identifier: MIT\npragma solidity ^0.8.7;\n\nimport \"@openzeppelin/contracts/token/ERC721/ERC721.sol\";\nimport \"@openzeppelin/contracts/utils/Counters.sol\";\nimport \"@openzeppelin/contracts/access/Ownable.sol\";\nimport \"@openzeppelin/contracts/token/ERC721/extensions/ERC721URIStorage.sol\";\nimport \"@openzeppelin/contracts/token/ERC721/extensions/ERC721Enumerable.sol\";\n\ncontract MyLuxury is ERC721URIStorage, Ownable, ERC721Enumerable {\n    using Counters for Counters.Counter;\n    Counters.Counter private _tokenIds;\n\n    constructor() ERC721(\"MyLuxury\", \"MLUX\") {}\n\n    struct LuxuryTokenData {\n        uint256 luxuryTokenId;\n        string luxuryTokenURI;\n    }\n\n    mapping(uint256 => string) _tokenData;\n    mapping(address => uint256) _tokenOwner;\n\n    function _beforeTokenTransfer(\n        address from,\n        address to,\n        uint256 tokenId,\n        uint256 batchSize\n    ) internal override(ERC721, ERC721Enumerable) {\n        super._beforeTokenTransfer(from, to, tokenId, 1);\n    }\n\n    function _burn(uint256 tokenId)\n        internal\n        override(ERC721, ERC721URIStorage)\n    {\n        super._burn(tokenId);\n    }\n\n    function supportsInterface(bytes4 interfaceId)\n        public\n        view\n        override(ERC721, ERC721Enumerable)\n        returns (bool)\n    {\n        return super.supportsInterface(interfaceId);\n    }\n\n    function tokenURI(uint256 tokenId)\n        public\n        view\n        override(ERC721, ERC721URIStorage)\n        returns (string memory)\n    {\n        return super.tokenURI(tokenId);\n    }\n\n    function mintNFT(string memory tokenURI, address receiver)\n        public\n        onlyOwner\n        returns (uint256)\n    {\n        _tokenIds.increment();\n\n        uint256 newItemId = _tokenIds.current();\n        _mint(receiver, newItemId);\n        _setTokenURI(newItemId, tokenURI);\n\n        _tokenData[newItemId] = tokenURI;\n\n        return newItemId;\n    }\n\n    function getLuxuryToken(address _LuxuryTokenOwner)\n        public\n        view\n        returns (LuxuryTokenData[] memory)\n    {\n        uint256 balanceLength = balanceOf(_LuxuryTokenOwner);\n\n        LuxuryTokenData[] memory luxuryTokenData = new LuxuryTokenData[](\n            balanceLength\n        );\n\n        for (uint256 i = 0; i < balanceLength; i++) {\n            uint256 luxuryTokenId = tokenOfOwnerByIndex(_LuxuryTokenOwner, i);\n            string memory luxuryTokenURI = _tokenData[luxuryTokenId];\n            luxuryTokenData[i] = LuxuryTokenData(luxuryTokenId, luxuryTokenURI);\n        }\n        return luxuryTokenData;\n    }\n}\n",
  "sourcePath": "/home/dd/URCLASS/BEB-07-final-Luxury-Guarantee/server/utils/contracts/erc721.sol",
  "compiler": {
    "name": "solc",
    "version": "0.8.17+commit.8df45f5f.Emscripten.clang"
  },
  "schemaVersion": "3.4.11",
  "updatedAt": "2023-01-30T23:09:32.912Z",
  "devdoc": {
    "kind": "dev",
    "methods": {
      "approve(address,uint256)": {
        "details": "See {IERC721-approve}."
      },
      "balanceOf(address)": {
        "details": "See {IERC721-balanceOf}."
      },
      "getApproved(uint256)": {
        "details": "See {IERC721-getApproved}."
      },
      "isApprovedForAll(address,address)": {
        "details": "See {IERC721-isApprovedForAll}."
      },
      "name()": {
        "details": "See {IERC721Metadata-name}."
      },
      "owner()": {
        "details": "Returns the address of the current owner."
      },
      "ownerOf(uint256)": {
        "details": "See {IERC721-ownerOf}."
      },
      "renounceOwnership()": {
        "details": "Leaves the contract without owner. It will not be possible to call `onlyOwner` functions anymore. Can only be called by the current owner. NOTE: Renouncing ownership will leave the contract without an owner, thereby removing any functionality that is only available to the owner."
      },
      "safeTransferFrom(address,address,uint256)": {
        "details": "See {IERC721-safeTransferFrom}."
      },
      "safeTransferFrom(address,address,uint256,bytes)": {
        "details": "See {IERC721-safeTransferFrom}."
      },
      "setApprovalForAll(address,bool)": {
        "details": "See {IERC721-setApprovalForAll}."
      },
      "symbol()": {
        "details": "See {IERC721Metadata-symbol}."
      },
      "tokenByIndex(uint256)": {
        "details": "See {IERC721Enumerable-tokenByIndex}."
      },
      "tokenOfOwnerByIndex(address,uint256)": {
        "details": "See {IERC721Enumerable-tokenOfOwnerByIndex}."
      },
      "totalSupply()": {
        "details": "See {IERC721Enumerable-totalSupply}."
      },
      "transferFrom(address,address,uint256)": {
        "details": "See {IERC721-transferFrom}."
      },
      "transferOwnership(address)": {
        "details": "Transfers ownership of the contract to a new account (`newOwner`). Can only be called by the current owner."
      }
    },
    "version": 1
  },
  "userdoc": {
    "kind": "user",
    "methods": {},
    "version": 1
  }
}